{
    "_format": "hh-sol-artifact-1",
    "contractName": "LendingCore",
    "sourceName": "contracts/LendingCore.sol",
    "abi": [
        {
            "inputs": [
                {
                    "internalType": "address",
                    "name": "usdc",
                    "type": "address"
                }
            ],
            "stateMutability": "nonpayable",
            "type": "constructor"
        },
        {
            "inputs": [],
            "name": "ReentrancyGuardReentrantCall",
            "type": "error"
        },
        {
            "inputs": [
                {
                    "internalType": "address",
                    "name": "token",
                    "type": "address"
                }
            ],
            "name": "SafeERC20FailedOperation",
            "type": "error"
        },
        {
            "anonymous": false,
            "inputs": [
                {
                    "indexed": true,
                    "internalType": "uint256",
                    "name": "bidId",
                    "type": "uint256"
                },
                {
                    "indexed": true,
                    "internalType": "uint256",
                    "name": "loanId",
                    "type": "uint256"
                },
                {
                    "indexed": true,
                    "internalType": "address",
                    "name": "lender",
                    "type": "address"
                }
            ],
            "name": "BidAccepted",
            "type": "event"
        },
        {
            "anonymous": false,
            "inputs": [
                {
                    "indexed": true,
                    "internalType": "uint256",
                    "name": "bidId",
                    "type": "uint256"
                }
            ],
            "name": "BidCancelled",
            "type": "event"
        },
        {
            "anonymous": false,
            "inputs": [
                {
                    "indexed": true,
                    "internalType": "uint256",
                    "name": "bidId",
                    "type": "uint256"
                },
                {
                    "indexed": true,
                    "internalType": "address",
                    "name": "borrower",
                    "type": "address"
                },
                {
                    "indexed": false,
                    "internalType": "uint256",
                    "name": "amount",
                    "type": "uint256"
                },
                {
                    "indexed": false,
                    "internalType": "uint256",
                    "name": "aprBps",
                    "type": "uint256"
                },
                {
                    "indexed": false,
                    "internalType": "uint256",
                    "name": "recommendedAmount",
                    "type": "uint256"
                },
                {
                    "indexed": false,
                    "internalType": "uint256",
                    "name": "recommendedApr",
                    "type": "uint256"
                }
            ],
            "name": "BidSubmitted",
            "type": "event"
        },
        {
            "anonymous": false,
            "inputs": [
                {
                    "indexed": true,
                    "internalType": "uint256",
                    "name": "loanId",
                    "type": "uint256"
                },
                {
                    "indexed": false,
                    "internalType": "uint256",
                    "name": "timestamp",
                    "type": "uint256"
                },
                {
                    "indexed": false,
                    "internalType": "uint256",
                    "name": "outstanding",
                    "type": "uint256"
                }
            ],
            "name": "Defaulted",
            "type": "event"
        },
        {
            "anonymous": false,
            "inputs": [
                {
                    "indexed": true,
                    "internalType": "uint256",
                    "name": "loanId",
                    "type": "uint256"
                },
                {
                    "indexed": true,
                    "internalType": "address",
                    "name": "payer",
                    "type": "address"
                },
                {
                    "indexed": false,
                    "internalType": "uint256",
                    "name": "amount",
                    "type": "uint256"
                },
                {
                    "indexed": false,
                    "internalType": "uint256",
                    "name": "newRepaid",
                    "type": "uint256"
                },
                {
                    "indexed": false,
                    "internalType": "uint256",
                    "name": "outstanding",
                    "type": "uint256"
                }
            ],
            "name": "Repaid",
            "type": "event"
        },
        {
            "inputs": [],
            "name": "GRACE_TO_DEFAULT",
            "outputs": [
                {
                    "internalType": "uint256",
                    "name": "",
                    "type": "uint256"
                }
            ],
            "stateMutability": "view",
            "type": "function"
        },
        {
            "inputs": [],
            "name": "PENALTY_BPS_PER_DAY",
            "outputs": [
                {
                    "internalType": "uint256",
                    "name": "",
                    "type": "uint256"
                }
            ],
            "stateMutability": "view",
            "type": "function"
        },
        {
            "inputs": [],
            "name": "TERM",
            "outputs": [
                {
                    "internalType": "uint256",
                    "name": "",
                    "type": "uint256"
                }
            ],
            "stateMutability": "view",
            "type": "function"
        },
        {
            "inputs": [],
            "name": "USDC",
            "outputs": [
                {
                    "internalType": "contract IERC20",
                    "name": "",
                    "type": "address"
                }
            ],
            "stateMutability": "view",
            "type": "function"
        },
        {
            "inputs": [
                {
                    "internalType": "uint256",
                    "name": "bidId",
                    "type": "uint256"
                }
            ],
            "name": "acceptBid",
            "outputs": [
                {
                    "internalType": "uint256",
                    "name": "loanId",
                    "type": "uint256"
                }
            ],
            "stateMutability": "nonpayable",
            "type": "function"
        },
        {
            "inputs": [
                {
                    "internalType": "uint256",
                    "name": "",
                    "type": "uint256"
                }
            ],
            "name": "bids",
            "outputs": [
                {
                    "internalType": "address",
                    "name": "borrower",
                    "type": "address"
                },
                {
                    "internalType": "uint256",
                    "name": "amount",
                    "type": "uint256"
                },
                {
                    "internalType": "uint256",
                    "name": "aprBps",
                    "type": "uint256"
                },
                {
                    "internalType": "bool",
                    "name": "open",
                    "type": "bool"
                }
            ],
            "stateMutability": "view",
            "type": "function"
        },
        {
            "inputs": [
                {
                    "internalType": "uint256",
                    "name": "bidId",
                    "type": "uint256"
                }
            ],
            "name": "cancelBid",
            "outputs": [],
            "stateMutability": "nonpayable",
            "type": "function"
        },
        {
            "inputs": [
                {
                    "internalType": "uint256",
                    "name": "",
                    "type": "uint256"
                }
            ],
            "name": "loans",
            "outputs": [
                {
                    "internalType": "address",
                    "name": "borrower",
                    "type": "address"
                },
                {
                    "internalType": "address",
                    "name": "lender",
                    "type": "address"
                },
                {
                    "internalType": "uint256",
                    "name": "principal",
                    "type": "uint256"
                },
                {
                    "internalType": "uint256",
                    "name": "aprBps",
                    "type": "uint256"
                },
                {
                    "internalType": "uint256",
                    "name": "start",
                    "type": "uint256"
                },
                {
                    "internalType": "uint256",
                    "name": "due",
                    "type": "uint256"
                },
                {
                    "internalType": "uint256",
                    "name": "defaultDate",
                    "type": "uint256"
                },
                {
                    "internalType": "uint256",
                    "name": "repaid",
                    "type": "uint256"
                },
                {
                    "internalType": "bool",
                    "name": "settled",
                    "type": "bool"
                },
                {
                    "internalType": "bool",
                    "name": "defaulted",
                    "type": "bool"
                }
            ],
            "stateMutability": "view",
            "type": "function"
        },
        {
            "inputs": [
                {
                    "internalType": "uint256",
                    "name": "loanId",
                    "type": "uint256"
                }
            ],
            "name": "markDefault",
            "outputs": [],
            "stateMutability": "nonpayable",
            "type": "function"
        },
        {
            "inputs": [],
            "name": "nextBidId",
            "outputs": [
                {
                    "internalType": "uint256",
                    "name": "",
                    "type": "uint256"
                }
            ],
            "stateMutability": "view",
            "type": "function"
        },
        {
            "inputs": [],
            "name": "nextLoanId",
            "outputs": [
                {
                    "internalType": "uint256",
                    "name": "",
                    "type": "uint256"
                }
            ],
            "stateMutability": "view",
            "type": "function"
        },
        {
            "inputs": [
                {
                    "internalType": "uint256",
                    "name": "loanId",
                    "type": "uint256"
                }
            ],
            "name": "outstanding",
            "outputs": [
                {
                    "internalType": "uint256",
                    "name": "",
                    "type": "uint256"
                }
            ],
            "stateMutability": "view",
            "type": "function"
        },
        {
            "inputs": [
                {
                    "internalType": "uint256",
                    "name": "loanId",
                    "type": "uint256"
                },
                {
                    "internalType": "uint256",
                    "name": "amount",
                    "type": "uint256"
                }
            ],
            "name": "repay",
            "outputs": [],
            "stateMutability": "nonpayable",
            "type": "function"
        },
        {
            "inputs": [
                {
                    "internalType": "uint256",
                    "name": "loanId",
                    "type": "uint256"
                }
            ],
            "name": "status",
            "outputs": [
                {
                    "internalType": "uint8",
                    "name": "",
                    "type": "uint8"
                }
            ],
            "stateMutability": "view",
            "type": "function"
        },
        {
            "inputs": [
                {
                    "internalType": "uint256",
                    "name": "amount",
                    "type": "uint256"
                },
                {
                    "internalType": "uint256",
                    "name": "aprBps",
                    "type": "uint256"
                },
                {
                    "internalType": "uint256",
                    "name": "recommendedAmount",
                    "type": "uint256"
                },
                {
                    "internalType": "uint256",
                    "name": "recommendedApr",
                    "type": "uint256"
                }
            ],
            "name": "submitBid",
            "outputs": [
                {
                    "internalType": "uint256",
                    "name": "bidId",
                    "type": "uint256"
                }
            ],
            "stateMutability": "nonpayable",
            "type": "function"
        }
    ],
    "bytecode": "0x60a060405260018055600160025534801561001957600080fd5b5060405161107738038061107783398101604081905261003891610091565b60016000556001600160a01b0381166100805760405162461bcd60e51b81526020600482015260066024820152650555344433d360d41b604482015260640160405180910390fd5b6001600160a01b03166080526100c1565b6000602082840312156100a357600080fd5b81516001600160a01b03811681146100ba57600080fd5b9392505050565b608051610f866100f1600039600081816101e8015281816103cd01528181610a8a0152610ac50152610f866000f3fe608060405234801561001057600080fd5b50600436106100f55760003560e01c806389a3027111610097578063d8aed14511610066578063d8aed14514610254578063dc26904914610267578063e1d927c814610270578063e1ec3c681461028357600080fd5b806389a30271146101e35780639703ef35146102225780639b999bfa14610237578063d793139e1461024157600080fd5b80635ea25e28116100d35780635ea25e28146101b55780638204d5f2146101bf578063874a0e73146101c757806387c51459146101da57600080fd5b80632b1fd58a146100fa57806342d21ef7146101205780634423c5f114610145575b600080fd5b61010d610108366004610e4f565b61034e565b6040519081526020015b60405180910390f35b61013361012e366004610e4f565b610581565b60405160ff9091168152602001610117565b610189610153366004610e4f565b600360208190526000918252604090912080546001820154600283015492909301546001600160a01b0390911692919060ff1684565b604080516001600160a01b03909516855260208501939093529183015215156060820152608001610117565b61010d62278d0081565b61010d603281565b61010d6101d5366004610e4f565b6105f2565b61010d60025481565b61020a7f000000000000000000000000000000000000000000000000000000000000000081565b6040516001600160a01b039091168152602001610117565b610235610230366004610e4f565b610726565b005b61010d6276a70081565b61010d61024f366004610e68565b6107f8565b610235610262366004610e9a565b610974565b61010d60015481565b61023561027e366004610e4f565b610b89565b6102f5610291366004610e4f565b60046020819052600091825260409091208054600182015460028301546003840154948401546005850154600686015460078701546008909701546001600160a01b0396871698959096169693959293919290919060ff808216916101009004168a565b604080516001600160a01b039b8c1681529a90991660208b0152978901969096526060880194909452608087019290925260a086015260c085015260e08401521515610100830152151561012082015261014001610117565b6000610358610cc9565b60008281526003602081905260409091209081015460ff166103ac5760405162461bcd60e51b81526020600482015260086024820152673737ba1037b832b760c11b60448201526064015b60405180910390fd5b60038101805460ff19169055805460018201546103fb916001600160a01b037f000000000000000000000000000000000000000000000000000000000000000081169233929190911690610cf3565b6002805490600061040b83610ed2565b90915550604080516101408101825283546001600160a01b0316815233602082015260018401549181019190915260028301546060820152426080820181905291935060a0810161045f62278d0084610eeb565b81526020016276a70061047562278d0085610eeb565b61047f9190610eeb565b815260006020808301829052604080840183905260609384018390528783526004808352818420865181546001600160a01b03199081166001600160a01b039283161783559488015160018301805490961691161790935585820151600284015593850151600383015560808501519382019390935560a0840151600582015560c0840151600682015560e0840151600782015561010080850151600890920180546101209096015161ffff1990961692151561ff001916929092179415150293909317909255513391859187917fd04f845137f741f1b1fcb8758a097aa384274dde474ea57dc4b71e88f8625cf391a4505061057c6001600055565b919050565b6000818152600460205260408120600881015460ff16156105a55750600292915050565b6008810154610100900460ff16156105c05750600392915050565b8060050154421180156105db575060006105d9846105f2565b115b156105e95750600192915050565b50600092915050565b600081815260046020526040812080546001600160a01b03166106185750600092915050565b60058101544290600090821115610642578260040154836005015461063d9190610f04565b610651565b60048301546106519083610f04565b905060006106688460020154856003015484610d60565b9050600084600501548411156106d85760008560060154851115610690578560060154610692565b845b905085600501548111156106d6576000620151808760050154836106b69190610f04565b6106c09190610f17565b90506106d28760020154603283610d98565b9250505b505b6000818387600201546106eb9190610eeb565b6106f59190610eeb565b905080866007015410156107175760078601546107129082610f04565b61071a565b60005b98975050505050505050565b60008181526003602081905260409091209081015460ff166107755760405162461bcd60e51b81526020600482015260086024820152673737ba1037b832b760c11b60448201526064016103a3565b80546001600160a01b031633146107bd5760405162461bcd60e51b815260206004820152600c60248201526b3737ba103137b93937bbb2b960a11b60448201526064016103a3565b60038101805460ff1916905560405182907fc1546e394b1975212fe013e7e6995653585f44e568c407d1157483f7d4b9458190600090a25050565b6000633b9aca00851015801561081357506404a817c8008511155b61084e5760405162461bcd60e51b815260206004820152600c60248201526b616d6f756e742072616e676560a01b60448201526064016103a3565b6101f4841015801561086257506107d08411155b61089a5760405162461bcd60e51b81526020600482015260096024820152686170722072616e676560b81b60448201526064016103a3565b600180549060006108aa83610ed2565b9091555060408051608080820183523380835260208084018b81528486018b81526001606080880182815260008b81526003808852908b902099518a546001600160a01b0319166001600160a01b03909116178a55945192890192909255915160028801555195909101805460ff19169515159590951790945584518b81529081018a90529384018890529183018690529293509183917ffbdd045754a790adae265bde82d30dfa86a255ebe5b521b161527491155ab7d4910160405180910390a3949350505050565b61097c610cc9565b600082815260046020526040902080546001600160a01b03166109cb5760405162461bcd60e51b81526020600482015260076024820152666c6f616e204e4160c81b60448201526064016103a3565b600881015460ff161580156109ea57506008810154610100900460ff16155b610a1f5760405162461bcd60e51b815260206004820152600660248201526518db1bdcd95960d21b60448201526064016103a3565b6000610a2a846105f2565b905060008111610a6a5760405162461bcd60e51b815260206004820152600b60248201526a6e6f7468696e672064756560a81b60448201526064016103a3565b6000818411610a795783610a7b565b815b9050610ab26001600160a01b037f000000000000000000000000000000000000000000000000000000000000000016333084610cf3565b6001830154610aee906001600160a01b037f00000000000000000000000000000000000000000000000000000000000000008116911683610da8565b80836007016000828254610b029190610eeb565b9091555060009050610b13866105f2565b905080600003610b2d5760088401805460ff191660011790555b60078401546040805184815260208101929092528101829052339087907fb7245d7a1156fb83f5e8da87a8cf6e6504842dce2a4d6a2946ad7e1067c50d859060600160405180910390a350505050610b856001600055565b5050565b6000818152600460205260409020600881015460ff16158015610bb657506008810154610100900460ff16155b610beb5760405162461bcd60e51b815260206004820152600660248201526518db1bdcd95960d21b60448201526064016103a3565b80600601544211610c315760405162461bcd60e51b815260206004820152601060248201526f1b9bdd081c185cdd08191959985d5b1d60821b60448201526064016103a3565b6000610c3c836105f2565b905060008111610c785760405162461bcd60e51b81526020600482015260076024820152661b9bc81919589d60ca1b60448201526064016103a3565b60088201805461ff001916610100179055604080514281526020810183905284917fc4f17a65d54873d57229ea5f59c4ddec592d095bc17581372676402c8228b9cd910160405180910390a2505050565b600260005403610cec57604051633ee5aeb560e01b815260040160405180910390fd5b6002600055565b6040516001600160a01b038481166024830152838116604483015260648201839052610d5a9186918216906323b872dd906084015b604051602081830303815290604052915060e01b6020820180516001600160e01b038381831617835250505050610dde565b50505050565b6000610d716224ea00612710610f39565b82610d7c8587610f39565b610d869190610f39565b610d909190610f17565b949350505050565b600061271082610d7c8587610f39565b6040516001600160a01b03838116602483015260448201839052610dd991859182169063a9059cbb90606401610d28565b505050565b600080602060008451602086016000885af180610e01576040513d6000823e3d81fd5b50506000513d91508115610e19578060011415610e26565b6001600160a01b0384163b155b15610d5a57604051635274afe760e01b81526001600160a01b03851660048201526024016103a3565b600060208284031215610e6157600080fd5b5035919050565b60008060008060808587031215610e7e57600080fd5b5050823594602084013594506040840135936060013592509050565b60008060408385031215610ead57600080fd5b50508035926020909101359150565b634e487b7160e01b600052601160045260246000fd5b600060018201610ee457610ee4610ebc565b5060010190565b80820180821115610efe57610efe610ebc565b92915050565b81810381811115610efe57610efe610ebc565b600082610f3457634e487b7160e01b600052601260045260246000fd5b500490565b8082028115828204841417610efe57610efe610ebc56fea2646970667358221220081da8b5182220a5fadf7bc645e1ec79488ab441c3ec3c1bd686c16b4f8de03164736f6c63430008180033",
    "linkReferences": {},
    "deployedLinkReferences": {}
}