{
  "_format": "hh-sol-artifact-1",
  "contractName": "LendingCore",
  "sourceName": "contracts/LendingCore.sol",
  "abi": [
    {
      "inputs": [
        {
          "internalType": "address",
          "name": "usdc",
          "type": "address"
        }
      ],
      "stateMutability": "nonpayable",
      "type": "constructor"
    },
    {
      "inputs": [],
      "name": "ReentrancyGuardReentrantCall",
      "type": "error"
    },
    {
      "inputs": [
        {
          "internalType": "address",
          "name": "token",
          "type": "address"
        }
      ],
      "name": "SafeERC20FailedOperation",
      "type": "error"
    },
    {
      "anonymous": false,
      "inputs": [
        {
          "indexed": true,
          "internalType": "uint256",
          "name": "bidId",
          "type": "uint256"
        },
        {
          "indexed": true,
          "internalType": "uint256",
          "name": "loanId",
          "type": "uint256"
        },
        {
          "indexed": true,
          "internalType": "address",
          "name": "lender",
          "type": "address"
        }
      ],
      "name": "BidAccepted",
      "type": "event"
    },
    {
      "anonymous": false,
      "inputs": [
        {
          "indexed": true,
          "internalType": "uint256",
          "name": "bidId",
          "type": "uint256"
        }
      ],
      "name": "BidCancelled",
      "type": "event"
    },
    {
      "anonymous": false,
      "inputs": [
        {
          "indexed": true,
          "internalType": "uint256",
          "name": "bidId",
          "type": "uint256"
        },
        {
          "indexed": true,
          "internalType": "address",
          "name": "borrower",
          "type": "address"
        },
        {
          "indexed": false,
          "internalType": "uint256",
          "name": "amount",
          "type": "uint256"
        },
        {
          "indexed": false,
          "internalType": "uint256",
          "name": "aprBps",
          "type": "uint256"
        },
        {
          "indexed": false,
          "internalType": "uint256",
          "name": "recommendedAmount",
          "type": "uint256"
        },
        {
          "indexed": false,
          "internalType": "uint256",
          "name": "recommendedApr",
          "type": "uint256"
        }
      ],
      "name": "BidSubmitted",
      "type": "event"
    },
    {
      "anonymous": false,
      "inputs": [
        {
          "indexed": true,
          "internalType": "uint256",
          "name": "loanId",
          "type": "uint256"
        },
        {
          "indexed": false,
          "internalType": "uint256",
          "name": "timestamp",
          "type": "uint256"
        },
        {
          "indexed": false,
          "internalType": "uint256",
          "name": "outstanding",
          "type": "uint256"
        }
      ],
      "name": "Defaulted",
      "type": "event"
    },
    {
      "anonymous": false,
      "inputs": [
        {
          "indexed": true,
          "internalType": "uint256",
          "name": "loanId",
          "type": "uint256"
        },
        {
          "indexed": true,
          "internalType": "address",
          "name": "payer",
          "type": "address"
        },
        {
          "indexed": false,
          "internalType": "uint256",
          "name": "amount",
          "type": "uint256"
        },
        {
          "indexed": false,
          "internalType": "uint256",
          "name": "newRepaid",
          "type": "uint256"
        },
        {
          "indexed": false,
          "internalType": "uint256",
          "name": "outstanding",
          "type": "uint256"
        }
      ],
      "name": "Repaid",
      "type": "event"
    },
    {
      "inputs": [],
      "name": "GRACE_TO_DEFAULT",
      "outputs": [
        {
          "internalType": "uint256",
          "name": "",
          "type": "uint256"
        }
      ],
      "stateMutability": "view",
      "type": "function"
    },
    {
      "inputs": [],
      "name": "PENALTY_BPS_PER_DAY",
      "outputs": [
        {
          "internalType": "uint256",
          "name": "",
          "type": "uint256"
        }
      ],
      "stateMutability": "view",
      "type": "function"
    },
    {
      "inputs": [],
      "name": "TERM",
      "outputs": [
        {
          "internalType": "uint256",
          "name": "",
          "type": "uint256"
        }
      ],
      "stateMutability": "view",
      "type": "function"
    },
    {
      "inputs": [],
      "name": "USDC",
      "outputs": [
        {
          "internalType": "contract IERC20",
          "name": "",
          "type": "address"
        }
      ],
      "stateMutability": "view",
      "type": "function"
    },
    {
      "inputs": [
        {
          "internalType": "uint256",
          "name": "bidId",
          "type": "uint256"
        }
      ],
      "name": "acceptBid",
      "outputs": [
        {
          "internalType": "uint256",
          "name": "loanId",
          "type": "uint256"
        }
      ],
      "stateMutability": "nonpayable",
      "type": "function"
    },
    {
      "inputs": [
        {
          "internalType": "uint256",
          "name": "",
          "type": "uint256"
        }
      ],
      "name": "bids",
      "outputs": [
        {
          "internalType": "address",
          "name": "borrower",
          "type": "address"
        },
        {
          "internalType": "uint256",
          "name": "amount",
          "type": "uint256"
        },
        {
          "internalType": "uint256",
          "name": "aprBps",
          "type": "uint256"
        },
        {
          "internalType": "uint256",
          "name": "recommendedAmount",
          "type": "uint256"
        },
        {
          "internalType": "uint256",
          "name": "recommendedAprBps",
          "type": "uint256"
        },
        {
          "internalType": "bool",
          "name": "open",
          "type": "bool"
        }
      ],
      "stateMutability": "view",
      "type": "function"
    },
    {
      "inputs": [
        {
          "internalType": "uint256",
          "name": "bidId",
          "type": "uint256"
        }
      ],
      "name": "cancelBid",
      "outputs": [],
      "stateMutability": "nonpayable",
      "type": "function"
    },
    {
      "inputs": [
        {
          "internalType": "uint256",
          "name": "",
          "type": "uint256"
        }
      ],
      "name": "loans",
      "outputs": [
        {
          "internalType": "address",
          "name": "borrower",
          "type": "address"
        },
        {
          "internalType": "address",
          "name": "lender",
          "type": "address"
        },
        {
          "internalType": "uint256",
          "name": "principal",
          "type": "uint256"
        },
        {
          "internalType": "uint256",
          "name": "aprBps",
          "type": "uint256"
        },
        {
          "internalType": "uint256",
          "name": "start",
          "type": "uint256"
        },
        {
          "internalType": "uint256",
          "name": "due",
          "type": "uint256"
        },
        {
          "internalType": "uint256",
          "name": "defaultDate",
          "type": "uint256"
        },
        {
          "internalType": "uint256",
          "name": "repaid",
          "type": "uint256"
        },
        {
          "internalType": "bool",
          "name": "settled",
          "type": "bool"
        },
        {
          "internalType": "bool",
          "name": "defaulted",
          "type": "bool"
        }
      ],
      "stateMutability": "view",
      "type": "function"
    },
    {
      "inputs": [
        {
          "internalType": "uint256",
          "name": "loanId",
          "type": "uint256"
        }
      ],
      "name": "markDefault",
      "outputs": [],
      "stateMutability": "nonpayable",
      "type": "function"
    },
    {
      "inputs": [],
      "name": "nextBidId",
      "outputs": [
        {
          "internalType": "uint256",
          "name": "",
          "type": "uint256"
        }
      ],
      "stateMutability": "view",
      "type": "function"
    },
    {
      "inputs": [],
      "name": "nextLoanId",
      "outputs": [
        {
          "internalType": "uint256",
          "name": "",
          "type": "uint256"
        }
      ],
      "stateMutability": "view",
      "type": "function"
    },
    {
      "inputs": [
        {
          "internalType": "uint256",
          "name": "loanId",
          "type": "uint256"
        }
      ],
      "name": "outstanding",
      "outputs": [
        {
          "internalType": "uint256",
          "name": "",
          "type": "uint256"
        }
      ],
      "stateMutability": "view",
      "type": "function"
    },
    {
      "inputs": [
        {
          "internalType": "uint256",
          "name": "loanId",
          "type": "uint256"
        },
        {
          "internalType": "uint256",
          "name": "amount",
          "type": "uint256"
        }
      ],
      "name": "repay",
      "outputs": [],
      "stateMutability": "nonpayable",
      "type": "function"
    },
    {
      "inputs": [
        {
          "internalType": "uint256",
          "name": "loanId",
          "type": "uint256"
        }
      ],
      "name": "status",
      "outputs": [
        {
          "internalType": "uint8",
          "name": "",
          "type": "uint8"
        }
      ],
      "stateMutability": "view",
      "type": "function"
    },
    {
      "inputs": [
        {
          "internalType": "uint256",
          "name": "amount",
          "type": "uint256"
        },
        {
          "internalType": "uint256",
          "name": "aprBps",
          "type": "uint256"
        },
        {
          "internalType": "uint256",
          "name": "recommendedAmount",
          "type": "uint256"
        },
        {
          "internalType": "uint256",
          "name": "recommendedApr",
          "type": "uint256"
        }
      ],
      "name": "submitBid",
      "outputs": [
        {
          "internalType": "uint256",
          "name": "bidId",
          "type": "uint256"
        }
      ],
      "stateMutability": "nonpayable",
      "type": "function"
    }
  ],
  "bytecode": "0x60a060405260018055600160025534801561001957600080fd5b506040516110ad3803806110ad83398101604081905261003891610091565b60016000556001600160a01b0381166100805760405162461bcd60e51b81526020600482015260066024820152650555344433d360d41b604482015260640160405180910390fd5b6001600160a01b03166080526100c1565b6000602082840312156100a357600080fd5b81516001600160a01b03811681146100ba57600080fd5b9392505050565b608051610fbc6100f160003960008181610204015281816103e701528181610ac00152610afb0152610fbc6000f3fe608060405234801561001057600080fd5b50600436106100f55760003560e01c806389a3027111610097578063d8aed14511610066578063d8aed14514610270578063dc26904914610283578063e1d927c81461028c578063e1ec3c681461029f57600080fd5b806389a30271146101ff5780639703ef351461023e5780639b999bfa14610253578063d793139e1461025d57600080fd5b80635ea25e28116100d35780635ea25e28146101d15780638204d5f2146101db578063874a0e73146101e357806387c51459146101f657600080fd5b80632b1fd58a146100fa57806342d21ef7146101205780634423c5f114610145575b600080fd5b61010d610108366004610e85565b61036a565b6040519081526020015b60405180910390f35b61013361012e366004610e85565b61059b565b60405160ff9091168152602001610117565b610198610153366004610e85565b60036020819052600091825260409091208054600182015460028301549383015460048401546005909401546001600160a01b03909316949193919290919060ff1686565b604080516001600160a01b03909716875260208701959095529385019290925260608401526080830152151560a082015260c001610117565b61010d62278d0081565b61010d603281565b61010d6101f1366004610e85565b61060c565b61010d60025481565b6102267f000000000000000000000000000000000000000000000000000000000000000081565b6040516001600160a01b039091168152602001610117565b61025161024c366004610e85565b610740565b005b61010d6276a70081565b61010d61026b366004610e9e565b610810565b61025161027e366004610ed0565b6109aa565b61010d60015481565b61025161029a366004610e85565b610bbf565b6103116102ad366004610e85565b60046020819052600091825260409091208054600182015460028301546003840154948401546005850154600686015460078701546008909701546001600160a01b0396871698959096169693959293919290919060ff808216916101009004168a565b604080516001600160a01b039b8c1681529a90991660208b0152978901969096526060880194909452608087019290925260a086015260c085015260e08401521515610100830152151561012082015261014001610117565b6000610374610cff565b6000828152600360205260409020600581015460ff166103c65760405162461bcd60e51b81526020600482015260086024820152673737ba1037b832b760c11b60448201526064015b60405180910390fd5b60058101805460ff1916905580546001820154610415916001600160a01b037f000000000000000000000000000000000000000000000000000000000000000081169233929190911690610d29565b6002805490600061042583610f08565b90915550604080516101408101825283546001600160a01b0316815233602082015260018401549181019190915260028301546060820152426080820181905291935060a0810161047962278d0084610f21565b81526020016276a70061048f62278d0085610f21565b6104999190610f21565b815260006020808301829052604080840183905260609384018390528783526004808352818420865181546001600160a01b03199081166001600160a01b039283161783559488015160018301805490961691161790935585820151600284015593850151600383015560808501519382019390935560a0840151600582015560c0840151600682015560e0840151600782015561010080850151600890920180546101209096015161ffff1990961692151561ff001916929092179415150293909317909255513391859187917fd04f845137f741f1b1fcb8758a097aa384274dde474ea57dc4b71e88f8625cf391a450506105966001600055565b919050565b6000818152600460205260408120600881015460ff16156105bf5750600292915050565b6008810154610100900460ff16156105da5750600392915050565b8060050154421180156105f5575060006105f38461060c565b115b156106035750600192915050565b50600092915050565b600081815260046020526040812080546001600160a01b03166106325750600092915050565b6005810154429060009082111561065c57826004015483600501546106579190610f3a565b61066b565b600483015461066b9083610f3a565b905060006106828460020154856003015484610d96565b9050600084600501548411156106f257600085600601548511156106aa5785600601546106ac565b845b905085600501548111156106f0576000620151808760050154836106d09190610f3a565b6106da9190610f4d565b90506106ec8760020154603283610dce565b9250505b505b6000818387600201546107059190610f21565b61070f9190610f21565b9050808660070154101561073157600786015461072c9082610f3a565b610734565b60005b98975050505050505050565b6000818152600360205260409020600581015460ff1661078d5760405162461bcd60e51b81526020600482015260086024820152673737ba1037b832b760c11b60448201526064016103bd565b80546001600160a01b031633146107d55760405162461bcd60e51b815260206004820152600c60248201526b3737ba103137b93937bbb2b960a11b60448201526064016103bd565b60058101805460ff1916905560405182907fc1546e394b1975212fe013e7e6995653585f44e568c407d1157483f7d4b9458190600090a25050565b6000633b9aca00851015801561082b57506404a817c8008511155b6108665760405162461bcd60e51b815260206004820152600c60248201526b616d6f756e742072616e676560a01b60448201526064016103bd565b6101f4841015801561087a57506107d08411155b6108b25760405162461bcd60e51b81526020600482015260096024820152686170722072616e676560b81b60448201526064016103bd565b600180549060006108c283610f08565b909155506040805160c0810182523380825260208083018a81528385018a815260608086018b815260808088018c8152600160a08a0181815260008d81526003808b52908d90209b518c546001600160a01b0319166001600160a01b03909116178c559751918b0191909155945160028a015591519488019490945551600487015590516005909501805460ff19169515159590951790945584518b81529182018a905293810188905291820186905292935083917ffbdd045754a790adae265bde82d30dfa86a255ebe5b521b161527491155ab7d4910160405180910390a3949350505050565b6109b2610cff565b600082815260046020526040902080546001600160a01b0316610a015760405162461bcd60e51b81526020600482015260076024820152666c6f616e204e4160c81b60448201526064016103bd565b600881015460ff16158015610a2057506008810154610100900460ff16155b610a555760405162461bcd60e51b815260206004820152600660248201526518db1bdcd95960d21b60448201526064016103bd565b6000610a608461060c565b905060008111610aa05760405162461bcd60e51b815260206004820152600b60248201526a6e6f7468696e672064756560a81b60448201526064016103bd565b6000818411610aaf5783610ab1565b815b9050610ae86001600160a01b037f000000000000000000000000000000000000000000000000000000000000000016333084610d29565b6001830154610b24906001600160a01b037f00000000000000000000000000000000000000000000000000000000000000008116911683610dde565b80836007016000828254610b389190610f21565b9091555060009050610b498661060c565b905080600003610b635760088401805460ff191660011790555b60078401546040805184815260208101929092528101829052339087907fb7245d7a1156fb83f5e8da87a8cf6e6504842dce2a4d6a2946ad7e1067c50d859060600160405180910390a350505050610bbb6001600055565b5050565b6000818152600460205260409020600881015460ff16158015610bec57506008810154610100900460ff16155b610c215760405162461bcd60e51b815260206004820152600660248201526518db1bdcd95960d21b60448201526064016103bd565b80600601544211610c675760405162461bcd60e51b815260206004820152601060248201526f1b9bdd081c185cdd08191959985d5b1d60821b60448201526064016103bd565b6000610c728361060c565b905060008111610cae5760405162461bcd60e51b81526020600482015260076024820152661b9bc81919589d60ca1b60448201526064016103bd565b60088201805461ff001916610100179055604080514281526020810183905284917fc4f17a65d54873d57229ea5f59c4ddec592d095bc17581372676402c8228b9cd910160405180910390a2505050565b600260005403610d2257604051633ee5aeb560e01b815260040160405180910390fd5b6002600055565b6040516001600160a01b038481166024830152838116604483015260648201839052610d909186918216906323b872dd906084015b604051602081830303815290604052915060e01b6020820180516001600160e01b038381831617835250505050610e14565b50505050565b6000610da76224ea00612710610f6f565b82610db28587610f6f565b610dbc9190610f6f565b610dc69190610f4d565b949350505050565b600061271082610db28587610f6f565b6040516001600160a01b03838116602483015260448201839052610e0f91859182169063a9059cbb90606401610d5e565b505050565b600080602060008451602086016000885af180610e37576040513d6000823e3d81fd5b50506000513d91508115610e4f578060011415610e5c565b6001600160a01b0384163b155b15610d9057604051635274afe760e01b81526001600160a01b03851660048201526024016103bd565b600060208284031215610e9757600080fd5b5035919050565b60008060008060808587031215610eb457600080fd5b5050823594602084013594506040840135936060013592509050565b60008060408385031215610ee357600080fd5b50508035926020909101359150565b634e487b7160e01b600052601160045260246000fd5b600060018201610f1a57610f1a610ef2565b5060010190565b80820180821115610f3457610f34610ef2565b92915050565b81810381811115610f3457610f34610ef2565b600082610f6a57634e487b7160e01b600052601260045260246000fd5b500490565b8082028115828204841417610f3457610f34610ef256fea264697066735822122099cf2dcb5adc52882638b0a486181ac8757061da2f8f438c614253d49640501364736f6c63430008180033",
  "linkReferences": {},
  "deployedLinkReferences": {}
}